:100000000C9436020C94780E0C94A50E0C945E029F
:100010000C945E020C945E020C945E020C945E02E0
:100020000C945E020C945E020C945E020C945E02D0
:100030000C945E020C945E020C945E020C945E02C0
:100040000C94D20E0C945E020C9452100C945E022E
:100050000C945E020C945E020C945E020C945E02A0
:100060000C945E020C945E020A417661696C6162D6
:100070006C6520636F6D6D616E64733A0A20203C7D
:100080006E6E3E206920202020202D207365742074
:100090006E6F646520494420287374616E646172D8
:1000A00064206E6F6465206964732061726520311D
:1000B0002E2E3236290A2020202020202020202009
:1000C0002020202020286F7220656E7465722061C8
:1000D0006E20757070657263617365202741272EED
:1000E0002E275A2720746F20736574206964290AAB
:1000F00020203C6E3E20622020202020202D2073D6
:100100006574204D487A2062616E64202834203D59
:10011000203433332C2038203D203836382C2039F9
:10012000203D20393135290A20203C6E6E6E3E205C
:1001300067202020202D20736574206E6574776FF2
:10014000726B2067726F7570202852464D313220D5
:100150006F6E6C7920616C6C6F777320323132294D
:100160000A20203C6E3E20632020202020202D20CD
:1001700073657420636F6C6C656374206D6F646568
:100180002028616476616E6365642C206E6F726DE9
:10019000616C6C792030290A2020742020202020D6
:1001A00020202020202D2062726F616463617374AF
:1001B000206D61782D73697A652074657374207081
:1001C00061636B65742C20776974682061636B0AC6
:1001D00020202E2E2E2C3C6E6E3E2061202D207372
:1001E000656E642064617461207061636B65742066
:1001F000746F206E6F6465203C6E6E3E2C207769B4
:1002000074682061636B0A20202E2E2E2C3C6E6EAB
:100210003E2073202D2073656E642064617461201C
:100220007061636B657420746F206E6F6465203C31
:100230006E6E3E2C206E6F2061636B0A20203C6E38
:100240003E206C2020202020202D207475726E20EE
:100250006163746976697479204C4544206F6E201F
:10026000504231206F6E206F72206F66660A5265B1
:100270006D6F746520636F6E74726F6C20636F6D49
:100280006D616E64733A0A20203C686368693E2C95
:100290003C68636C6F3E2C3C616464723E2C3C6332
:1002A0006D643E206620202020202D2046533230D1
:1002B00020636F6D6D616E642028383638204D489C
:1002C0007A290A20203C616464723E2C3C64657685
:1002D0003E2C3C6F6E3E206B2020202020202020D2
:1002E0002020202020202D204B414B5520636F6D76
:1002F0006D616E642028343333204D487A290A001A
:10030000466C6173682073746F7261676520284A58
:1003100065654C696E6B207632206F6E6C79293A78
:100320000A2020642020202020202020202020209F
:1003300020202020202020202020202020202020BD
:10034000202020202D2064756D7020616C6C206C45
:100350006F67206D61726B6572730A20203C736851
:100360003E2C3C736C3E2C3C74333E2C3C74323E31
:100370002C3C74313E2C3C74303E207220202D20C9
:100380007265706C61792066726F6D207370656341
:100390006966696564206D61726B65720A2020313F
:1003A00032332C3C6268693E2C3C626C6F3E2065A7
:1003B000202020202020202020202020202020203D
:1003C0002D20657261736520344B20626C6F636B06
:1003D0000A202031322C3334207720202020202086
:1003E000202020202020202020202020202020200D
:1003F000202020202D207769706520656E74697239
:100400006520666C617368206D656D6F72790A0096
:1004100000000000240027002A0000000000250042
:1004200028002B00000000002300260029000404FF
:10043000040404040404020202020202030303038C
:100440000303010204081020408001020408102068
:100450000102040810200000000700020100000350
:1004600004060000000000000000D71111241FBE88
:10047000CFEFD8E0DEBFCDBF11E0A0E0B1E0E0EF0C
:10048000F8E202C005900D92A03BB107D9F714E045
:10049000A0EBB1E001C01D92A435B107E1F714E073
:1004A000CCE6D4E004C02297FE010E947214CA3642
:1004B000D107C9F70E9411120C9476140C94000015
:1004C000FB01DC0102C001900D9241505040D8F771
:1004D0000895FB01DC010D900020E9F711970190D0
:1004E0000D920020E1F70895FB01DC0101900D92CF
:1004F0000020E1F70895EF92FF920F931F938C0174
:100500008AE060E00E94B60F1EBD0DB407FEFDCF6D
:100510008EB50EBD0DB407FEFDCFEEB4182F00E072
:100520008AE061E00E94B60FFF24E02AF12AC701A9
:100530001F910F91FF90EF900895882319F48DE09B
:1005400092E802C08DE392E80E947B02089580E069
:1005500090E00E947B028091FF01853009F041C04C
:1005600080E090EB0E947B0290910302E92FF0E083
:10057000EE54FE4F80839F5F909303022091B00161
:100580003091B1012827822F82958227082E8695E7
:1005900086958025082E869580258770022E232F2C
:1005A000869507948795302D2827069487953025C2
:1005B00028273093B1012093B0018091B30120919D
:1005C000030290E0039630E0821793072CF08091AD
:1005D0000302863408F46DC08DE092E80E947B022D
:1005E00008958091FF0187FF2EC0E091B3018091B3
:1005F000FF018F5F8093FF018150EE5FE80FF0E015
:10060000EE54FE4FE0818091B0019091B1018E27B0
:10061000282F22952827022E269526952025022E62
:10062000269520252770082E892F26950794279533
:10063000902D822706942795902582279093B101CB
:100640008093B00130C08091FF018F5F8093FF01E4
:100650008150833019F184302CF4882399F0813053
:1006600009F516C0893019F08A30E1F402C0EDE2D4
:100670001AC0E09100029091B3018EEF891B809324
:10068000FF0111C08091B0019091B101E82F0BC022
:100690008091B0019091B101E92F05C08DE092E801
:1006A0000E947B02EAEA8E2F90E0805098440E94DC
:1006B0007B020895982F86FD05C0907E8091FE01F3
:1006C0008F71980F9093B2014093B30124EB31E006
:1006D000C90150E00E946002E091FC01F091FD012F
:1006E000309711F081E0099580910102909102020A
:1006F0009093B1018093B00186E08093FF018DE378
:1007000092E80E947B0208958091FF01853001F5F7
:10071000809103028823E1F4F89480E090E00E9445
:100720007B0290FF03C0789480E008958DE092E80A
:100730000E947B0280E090E00E947B0280E090EBD0
:100740000E947B0284E08093FF01789481E0089509
:1007500080E008958091FF018530D1F58091B3014B
:100760002091030290E0039630E08217930724F073
:1007700080910302863460F184E08093FF018091D0
:10078000B301833430F081E090E09093B101809325
:10079000B0018091B20186FF0CC02091B20180911E
:1007A000FE0190E030E0822793278F719070892BB3
:1007B00079F48091B0019091B101892B31F5E091EC
:1007C000FC01F091FD01309701F180E0099529C00D
:1007D0008091FF01843011F080E008951092B30100
:1007E0008091B301809303028091010290910202F3
:1007F0009093B1018093B00185E08093FF018DED6E
:1008000092E80E947B0280E008958FEF9FEFAFEFA8
:10081000BFEF8093F8019093F901A093FA01B09390
:10082000FB0181E008951F93162F8093FE014093F2
:1008300000028AE061E00E94B60F8AE061E00E9457
:10084000960F8BE061E00E94960F8CE060E00E94C2
:10085000960F8DE061E00E94960F81E58CBD8DB50D
:1008600081608DBD82E060E00E94960F82E061E0D1
:100870000E94B60F80E090E00E947B0285E092E843
:1008800002C080E090E00E947B0282E00E940310A0
:10089000892BB9F3812F90E074E0880F991F7A9526
:1008A000E1F7876C90680E947B0280E496EA0E94E0
:1008B0007B0286E096EC0E947B0282EA94E90E9429
:1008C0007B028CEA92EC0E947B0283E89AEC0E9405
:1008D0007B028091000290E09E6C0E947B0283E884
:1008E00094EC0E947B0280E598E90E947B0287E7F6
:1008F0009CEC0E947B0280E090EE0E947B0280E0F4
:1009000098EC0E947B0289E490EC0E947B0220918B
:1009100000028FEF9FEF8227282F22952827022E93
:10092000269526952025022E269520252770082E0F
:10093000892F269507942795902D82270694279531
:1009400090258227909302028093010284E0809395
:10095000FF018091FE0190E08F719070892B41F032
:1009600080E067EA72E040E050E00E94420E03C07F
:1009700080E00E94650E1F910895FF920F931F93D0
:10098000CF93DF934FEF5FEF20E230E0F999FECF96
:1009900032BD21BDF89A80B54827842F82958427DF
:1009A000082E869586958025082E86958025877049
:1009B000042E452F869507948795502D4827069439
:1009C0008795502548272F5F3F4F2034310509F088
:1009D000DDCF452B11F080E030C000E0FF2410E0B7
:1009E000C0E2D0E0F999FECFD2BDC1BDF89A60B5A2
:1009F000112311F4062F0CC0113011F4F62E08C08B
:100A0000662351F081E494E040E050E00E9411132D
:100A10001F5F21961E3131F781E494E00E9480131C
:100A2000602F70E0E6E075956795EA95E1F7802F15
:100A30004F2D0E941304802F8F71DF91CF911F9152
:100A40000F91FF900895982F25E0F89428982EBDD7
:100A50000DB407FEFDCF8EB51EBC0DB407FEFDCF55
:100A60008EB5289A789480FDF0CFF89428989EBD92
:100A70000DB407FEFDCF8EB508951F93182F86E0A5
:100A80000E942305289A7894812F0E9423051F91A4
:100A90000895DF92EF92FF920F931F93CF93DF930E
:100AA0008C01D62E7A01E90183E00E9423051EBD48
:100AB0000DB407FEFDCF8EB50EBD0DB407FEFDCF04
:100AC0008EB5DEBC0DB407FEFDCF8EB520E030E064
:100AD0000BC01EBC0DB407FEFDCF8EB5F701E20FB3
:100AE000F11D80832F5F3F4F2C173D0790F3289A0D
:100AF0007894DF91CF911F910F91FF90EF90DF904D
:100B000008950F931F93CF93DF938C01EB0182E045
:100B10000E943D051EBD0DB407FEFDCF8EB50EBD76
:100B20000DB407FEFDCF8EB51EBC0DB407FEFDCF84
:100B30008EB520E030E0FE01E20FF11D80818EBD18
:100B40000DB407FEFDCF8EB52F5F3F4F81E0203003
:100B5000380789F7289A7894DF91CF911F910F91E8
:100B6000089580E090E060E070E040E050E020E038
:100B700030E00E94490508951F93CF93DF93EC0165
:100B8000FE0121961491112389F01A3039F481E481
:100B900094E06DE040E050E00E946C1381E494E04A
:100BA000612F40E050E00E946C13EACFDF91CF91BB
:100BB0001F91089588E690E00E94BC058091AD02E7
:100BC0009091AE02892B21F080E093E00E94BC0559
:100BD00081E494E060E071E00E94BB130E94BD04D8
:100BE0000895EF92FF920F931F938C017B0181E098
:100BF0000E949D02C8018A569F4F0E94520F80E0BA
:100C00000E949D02C701885C90400E94520F1F9174
:100C10000F91FF90EF9008950F931F93CF93DF9361
:100C2000EC016830A1F49C01220F331F082E82953D
:100C30008025082E869586958025C82FD0E02196A0
:100C4000D595C795C170D070C22BD32B69E0262FE4
:100C500030E02150304081E090E0A0E0B0E004C0FE
:100C6000880F991FAA1FBB1F2A95D2F78C010FC0AE
:100C7000C8018C239D23892B19F460E971E002C01F
:100C800068E572E0CB010E94F10516950795011504
:100C9000110571F7DF91CF911F910F9108950F9377
:100CA0001F938C0181E494E067E171E00E944F1290
:100CB00081E494E0B8014AE050E00E94A21380E28F
:100CC0000E943D051EBD0DB407FEFDCF8EB50EBDC5
:100CD0000DB407FEFDCF8EB51EBC0DB407FEFDCFD3
:100CE0008EB5289A78940E94B1051F910F910895AE
:100CF0006091AF03662309F49EC02091AD0230914C
:100D0000AE022F5F3F4F8FE02030380710F020E217
:100D100030E03093AE022093AD022032310549F429
:100D20008091A7039091A80301969093A8038093C4
:100D3000A7038FEF9FEF9093AE038093AD03EFEA8D
:100D4000F2E090E04FEF5FEF7FEF961718F0983FDB
:100D500008F4708381914827842F82958427082E78
:100D6000869586958025082E869580258770042E89
:100D7000452F869507948795502D4827069487958B
:100D8000502548279F5F9E3F01F75093AE03409345
:100D9000AD03C9016FEA72E00E9481051092AF03B2
:100DA0000E94B10581E494E06DE171E00E944F1270
:100DB0006091AD027091AE0281E494E04AE050E0AF
:100DC0000E94001381E494E060E240E050E00E9461
:100DD0006C136091A7037091A80381E494E04AE04A
:100DE00050E00E94001381E494E060E240E050E0B3
:100DF0000E946C134091A9035091AA036091AB0328
:100E00007091AC0381E494E02AE030E00E94C613C4
:100E10002091AD023091AE02C9018F709070892B84
:100E200051F4C90140962FE08030920710F080E223
:100E300090E00E944F0608950E941A0F28EE33E0BA
:100E400040E050E00E943314CA01B90108950F93A5
:100E50001F93CF93DF93EC018B016B30710540F052
:100E6000CB016AE070E00E940C14CE010E942707BB
:100E7000DE010D900020E9F71197AC1BCA0FD11DC0
:100E8000C8016AE070E00E940C14805D8883DF91E5
:100E9000CF911F910F9108951F93CF93DF93C6E0D9
:100EA000D2E08CE1FE0111928A95E9F7CE0163E26E
:100EB00071E00E947402109104021F71FE01019002
:100EC0000020E9F7E750F240F0E0EC0FFD1F105C66
:100ED00010831054CE0165E271E00E946902CE01D8
:100EE000612F70E00E9427078091040285FF0BC0EC
:100EF000FE0101900020E9F7E750F240F0E0EC0F2E
:100F0000FD1F8AE2808386E092E068E271E00E9441
:100F100069026091050286E092E070E00E94270776
:100F200086E092E06BE271E00E946902E0910402C7
:100F3000F0E066E0F595E7956A95E1F7EE0FFF1FA3
:100F4000E356FE4F6081718186E092E00E942707A0
:100F500086E092E06FE271E00E9469028FEF9FEFFE
:100F60009093230280932202E4E0F2E021918091A9
:100F70002202909123028227282F22952827022ED1
:100F8000269526952025022E269520252770082EA9
:100F9000892F269507942795902D822706942795CB
:100FA00090258227909323028093220282E0E232EE
:100FB000F807E1F680E290E0FC01EC51FE4FE081A1
:100FC000F999FECF1FBA92BD81BDE0BD0FB6F8946E
:100FD000FA9AF99A0FBE01968034910569F70E943A
:100FE000BD04882331F481E494E065E371E00E945C
:100FF000BB13DF91CF911F9108951F93182F89E0A4
:1010000061E00E94960F60E0112309F461E089E03D
:101010000E94B60F1F9108952F923F924F925F92B8
:101020006F927F928F929F92AF92BF92CF92DF92F8
:10103000EF92FF920F931F93DF93CF93CDB7DEB75D
:1010400064970FB6F894DEBF0FBECDBF81E494E085
:101050000E948811882309F42BC481E494E00E9443
:101060009C11182F80538A3058F4809169022AE02D
:10107000829FC00111248053810F8093690218C49C
:101080001C3289F490916A02923450F4E92FF0E016
:10109000E559FD4F8091690280839F5F90936A02BA
:1010A0001092690205C4812F81568A3108F0EEC37F
:1010B00081E494E068E471E00E944F12609169025B
:1010C00081E494E070E04AE050E00E94591381E42A
:1010D00094E0612F40E050E00E94D113173609F4EC
:1010E0004EC0183694F4133609F44EC0143634F456
:1010F000113609F46AC01236F1F427C0153609F426
:1011000089C316360CF07AC021C1123709F488C1A0
:1011100013374CF41B3609F4B8C01C3609F469C007
:10112000193649F40BC01437E9F114370CF44DC0EB
:10113000173709F484C30E94DA059CC390916902B1
:101140009F7180910402807E14C080916902883072
:1011500011F492E005C0893011F091E001C093E0F4
:10116000909369029295990F990F907C8091040257
:101170008F73980F909304020E944C077BC3809159
:10118000690280930502F8CF80916902882321F0DB
:1011900080910402806203C0809104028F7D80935D
:1011A0000402EACF81E68093240282E48093250240
:1011B0001092260280E090E0FC01E95DFD4F808303
:1011C000019682349105C1F755C3109324024091D2
:1011D0006A0240932502809169028093260227E2E9
:1011E00032E0EBE6F2E0C901BF0150E00E9460028C
:1011F00041C3809169020E94FD073CC380E062E028
:1012000044ED0E94130481E00E94FD0790916B025F
:1012100080E020916C027C01E20EF11CB0906D0226
:10122000C0906902DF2C1B2D1C0D1A5F1E0D1F0DB7
:1012300000E081E090E06DE00E940C068D2D90E0D2
:1012400068E00E940C06C70168E00E940C068B2D26
:1012500090E068E00E940C068C2D90E068E00E940F
:101260000C06812F90E068E00E940C0680E090E080
:1012700061E00E940C066AE070E080E090E00E946D
:10128000280F0F5F0330A9F65BC080E061E044EDFA
:101290000E94130481E00E94FD0780916C02082FD8
:1012A00010E00150104024E0000F111F2A95E1F7D3
:1012B000166080916B02992787FD909501978F703A
:1012C0009070082B192B8091690281111860DD2420
:1012D0009CEDA92E95E0B92E30C087E791E065E638
:1012E00074E00E94F105C8010E2C02C09595879507
:1012F0000A94E2F780FD03C087E791E002C085E62B
:1013000094E0B501681B790B0E94F1050894E11C7B
:10131000F11C2CE0E216F10401F787E791E067E7A2
:1013200071E00E94F1056BE070E080E090E00E94C7
:10133000280FD39484E0D81619F0EE24FF24CDCFE3
:1013400080E00E94FD070E94BD0494C28091AD021E
:101350009091AE02892B09F48DC281E494E00E9441
:101360009C1197FFFACF00E210E08DE0E82EF12CFF
:10137000EC0EFD1E81E494E00E949C1197FF7AC25E
:10138000C80168EF70E0A70128E030E00E9449053D
:101390008D859E858F5F9F4FD9F181E494E06BE44A
:1013A00071E00E944F1281E494E0B8014AE050E0FD
:1013B0000E94001381E494E061E571E00E944F1205
:1013C0006D857E8581E494E04AE050E00E94001340
:1013D00081E494E060E240E050E00E946C134F85AD
:1013E000588969897A8981E494E02AE030E00E9492
:1013F000231381E494E060E240E050E00E946C132B
:101400006B897C8981E494E04AE050E00E94A21359
:101410000F5F1F4FBFE000301B0709F0ABCF2AC2A0
:101420008091AD029091AE02892B09F423C2909174
:101430006B0280E0892B19F480916C02811181E0AC
:10144000282E332490916D0280E0892B11F031E039
:1014500005C080916E02811181E0382F90916F025A
:1014600080E0892B11F021E005C080916902811193
:1014700081E0282F832F90E0A0E0B0E0DC019927E5
:101480008827E22EFF2400E010E0E82AF92A0A2B40
:101490001B2BA0E2CA2ED12CAA24AA94BA2C8824F1
:1014A0009924F7E06F2E712C6C0E7D1E2E0108948E
:1014B000411C511CC60168EF70E0A30126E030E03A
:1014C0000E9449052F813885EFEF2F3F3E07E9F055
:1014D0002215330568F02A153B0550F4D201F301BB
:1014E00086E001900D928150E1F7A980BA80460113
:1014F0002A153B0551F489859A85AB85BC85E8168C
:10150000F9060A071B070CF046010894C11CD11C00
:10151000F0E0CF16FFE0DF0669F681E494E065E5D0
:1015200071E00E944F1281E494E0B4014AE050E07F
:101530000E94001381E494E060E240E050E00E94E9
:101540006C136091AD027091AE0281E494E04AE0C8
:1015500050E00E94A21381E494E00E949C1197FF46
:10156000FACFC090A703D090A80310C181E494E003
:101570000E949C1197FF12C10894811C911C20E0CD
:1015800082162FE0920618F0E0E28E2E912CC40114
:1015900060E070E04FEA52E020E031E00E9449054F
:1015A0008091A7039091A8038F5F9F4F09F4EEC02D
:1015B000EFEAF2E00FEF1FEF81910827802F82956D
:1015C0008027082E869586958025082E869580256D
:1015D0008770002E012F869507948795102D082778
:1015E0000694879510250827B3E0EF3AFB0721F70B
:1015F0000115110511F410E08BC081E494E06EE553
:1016000071E00E944F1281E494E0B4014AE050E09E
:101610000E94001381E494E060E240E050E00E9408
:101620006C1381E494E0B8014AE050E00E94A213F8
:10163000ADC081E494E00E948811882309F073C052
:1016400081E494E065E671E00E944F126091A70387
:101650007091A80381E494E04AE050E00E940013F6
:1016600081E494E060E240E050E00E946C13012FBE
:101670000F5FF70180814091A9035091AA03609107
:10168000AB037091AC03480F511D611D711D81E4C6
:1016900094E02AE030E00E94231381E494E060E2C9
:1016A00040E050E00E946C131E5FE02FF0E0E15537
:1016B000FD4F608181E494E070E04AE050E00E94D8
:1016C0005913E12FF0E0E155FD4FE0801F5FF12E4F
:1016D0000E2D15C081E494E060E240E050E00E94ED
:1016E0006C13EF2DF0E0E155FD4F6081F39481E440
:1016F00094E070E04AE050E00E945913015000234A
:1017000049F71E0D81E494E00E948013183F58F4BD
:10171000E12EFF248FEA92E0E80EF91ED7018C91AA
:101720008F3F09F086CF81E494E068E671E00E9483
:101730004F1281E494E0B4014AE050E00E940013AB
:1017400081E494E060E240E050E00E946C1360911C
:10175000A7037091A80381E494E04AE050E00E945E
:10176000001381E494E060E240E050E00E946C13DA
:101770004091A9035091AA036091AB037091AC030F
:1017800081E494E02AE030E00E94C6138091AD022B
:101790009091AE028816990609F0E8CE1092AF0338
:1017A0000894C11CD11CD092A803C092A70381E465
:1017B00094E067E171E00E944F126091AD02709178
:1017C000AE0281E494E04AE050E00E94001381E41C
:1017D00094E060E240E050E00E946C136091A70347
:1017E0007091A80381E494E04AE050E00E94001365
:1017F00081E494E060E240E050E00E946C130E94BB
:101800001A0FAB01BC0181E494E02AE030E00E94B1
:10181000971330C08091AD029091AE02892B51F1A7
:1018200080916B028B3731F590916C0280E02091B2
:10183000690230E0822B932B0E944F061BC08091DF
:10184000AD029091AE02892BA9F080916B028C3091
:1018500089F480916902823269F481E494E06EE651
:1018600071E00E94BB1380E60E943D05289A78949F
:101870000E94B10510926A021092690282E4EBE6BE
:10188000F2E0DF011D928A95E9F712C0812F8154A1
:101890008A3150F41F7180910402807E810F809301
:1018A00004020E944C0704C0113214F00E94DA05B1
:1018B0000E94AA03882309F4C5C0F090B301809167
:1018C000B0019091B101892B39F481E494E063E790
:1018D00071E00E944F120BC081E494E067E771E071
:1018E0000E944F12B4E1BF1510F474E1F72E60911D
:1018F000B20181E494E070E04AE050E00E945913A4
:1019000000E010E014C081E494E060E240E050E0C8
:101910000E946C13F801EC54FE4F608181E494E066
:1019200070E04AE050E00E9459130F5F1F4F0F15FF
:1019300050F381E494E00E9480138091B001909173
:10194000B101892B09F07EC081E00E94FD078091E2
:10195000AD029091AE02892B09F459C01091B301E8
:101960001E5F8091AF03882351F40E941C0760938F
:10197000A9037093AA038093AB039093AC030E94D6
:101980001C07AB01BC018091A9039091AA03A0910F
:10199000AB03B091AC03481B590B6A0B7B0B4F3F59
:1019A0005105610571054CF48091AF0390E00196FB
:1019B000810F911D893F910580F00E9478060E9459
:1019C0001C076093A9037093AA038093AB039093C1
:1019D000AC0340E050E060E070E02091AF03E22F04
:1019E000F0E0E155FD4F40832F5F2093AF0330E0DF
:1019F00021553D4F42EB51E0C901BA01412F50E062
:101A00000E9460028091AF03810F8093AF038091A9
:101A1000B201807E803299F48091040285FD0FC06E
:101A200081E494E06BE771E00E94BB138091B20106
:101A30008F71806C60E070E040E00E945A0380E0AB
:101A40000E94FD07809124028823D1F10E94840323
:101A50008823B1F181E00E94FD0781E494E063E80E
:101A600071E00E944F126091250281E494E070E0E1
:101A70004AE050E00E94591381E494E068E871E084
:101A80000E94BB1380912402813611F090E001C0C6
:101A900090E29093240280912602882321F08064B2
:101AA000982B909324028091240267E272E0409187
:101AB00025020E945A031092240280E00E94FD0732
:101AC00064960FB6F894DEBF0FBECDBFCF91DF9105
:101AD0001F910F91FF90EF90DF90CF90BF90AF904C
:101AE0009F908F907F906F905F904F903F902F903E
:101AF0000895CF92DF92EF92FF920F931F93DF939F
:101B0000CF9300D0CDB7DEB781E494E040E051EE52
:101B100060E070E00E948F1081E494E06BE871E077
:101B20000E944F120E94BD048823A9F0F999FECFAC
:101B300080E290E092BD81BDF89A80B58093040266
:101B4000F999FECF81E290E092BD81BDF89A80B50F
:101B50008093050208C081E48093040284ED8093A1
:101B600005020E944C07289A88E061E00E94960FC7
:101B70008FE90E9423051EBC0DB407FEFDCF3EB5C4
:101B80001EBC0DB407FEFDCF2EB5932F80E0289A22
:101B9000789430E0822B932B85549F4109F065C0E7
:101BA00081E00E943D051EBC0DB407FEFDCF8EB541
:101BB000289A78941092A8031092A7038FEF9EE0C2
:101BC0009093AE028093AD0200E210E03FEFE32E6F
:101BD0003EE0F32E6E010894C11CD11CC80168EFD1
:101BE00070E0A60122E030E00E94490589819A81D7
:101BF0002FEF8F3F920739F001969093A8038093BF
:101C0000A703780105C0C8010197E816F90631F06D
:101C10000F5F1F4F8FE00030180701F7F092AE0200
:101C2000E092AD0281E494E067E971E00E944F1216
:101C30006091AD027091AE0281E494E04AE050E020
:101C40000E94001381E494E060E240E050E00E94D2
:101C50006C136091A7037091A80381E494E04AE0BB
:101C600050E00E94A2130E9478060E94DA050F90AD
:101C70000F90CF91DF911F910F91FF90EF90DF9028
:101C8000CF900895823000F5E82FF0E0EE0FFF1FAF
:101C9000E055FC4F71836083882319F08130A1F4F3
:101CA00008C0809169008C7F842B80936900E89A3A
:101CB000089580916900440F551F440F551F837F7D
:101CC000842B80936900E99A0895823080F48823F8
:101CD00019F0813021F402C0E89801C0E998E82F9A
:101CE000F0E0EE0FFF1FE055FC4F118210820895C7
:101CF0001F920F920FB60F9211242F933F934F9381
:101D00005F936F937F938F939F93AF93BF93EF9363
:101D1000FF938091B0039091B103892B29F0E0915A
:101D2000B003F091B1030995FF91EF91BF91AF918D
:101D30009F918F917F916F915F914F913F912F91E3
:101D40000F900FBE0F901F9018951F920F920FB615
:101D50000F9211242F933F934F935F936F937F9331
:101D60008F939F93AF93BF93EF93FF938091B203B1
:101D70009091B303892B29F0E091B203F091B30362
:101D80000995FF91EF91BF91AF919F918F917F91B5
:101D90006F915F914F913F912F910F900FBE0F90D8
:101DA0001F9018951F920F920FB60F9211242F9328
:101DB0003F938F939F93AF93BF938091B80390917C
:101DC000B903A091BA03B091BB033091BC03019653
:101DD000A11DB11D232F2D5F2D3720F02D5701960A
:101DE000A11DB11D2093BC038093B8039093B90348
:101DF000A093BA03B093BB038091B4039091B50351
:101E0000A091B603B091B7030196A11DB11D8093B7
:101E1000B4039093B503A093B603B093B703BF91F7
:101E2000AF919F918F913F912F910F900FBE0F9087
:101E30001F9018958FB7F8942091B8033091B9038B
:101E40004091BA035091BB038FBFB901CA010895F5
:101E5000EF92FF920F931F937B018C018FB7F89441
:101E60004091B8035091B9036091BA037091BB03DC
:101E70008FBF2FB7F8948091B8039091B903A091C8
:101E8000BA03B091BB032FBF841B950BA60BB70BF6
:101E9000E816F9060A071B0760F71F910F91FF90DC
:101EA000EF900895019739F0880F991F880F991FB7
:101EB00002970197F1F70895789484B5826084BD04
:101EC00084B5816084BD85B5826085BD85B581603E
:101ED00085BDEEE6F0E0808181608083E1E8F0E09E
:101EE000808182608083808181608083E0E8F0E08F
:101EF000808181608083E1EBF0E080818460808379
:101F0000E0EBF0E0808181608083EAE7F0E08081AF
:101F1000846080838081826080838081816080830F
:101F20008081806880831092C1000895282F30E05E
:101F3000C9018E5B9B4FFC019491225D3B4FF901DF
:101F40008491882391F0E82FF0E0EE0FFF1FE05F0F
:101F5000FB4FA591B491662329F48C919095892328
:101F60008C9308958C91892B8C930895482F50E081
:101F7000CA018A5A9B4FFC012491CA018E5B9B4F78
:101F8000FC019491425D5B4FFA0134913323D1F10E
:101F9000222331F1233021F4809180008F7705C016
:101FA000243031F4809180008F7D8093800018C0B0
:101FB000213019F484B58F7704C0223021F484B520
:101FC0008F7D84BD0DC0263021F48091B0008F77C5
:101FD00005C0273029F48091B0008F7D8093B00038
:101FE000E32FF0E0EE0FFF1FE65EFB4FA591B491EB
:101FF000662329F48C91909589238C9308958C9174
:10200000892B8C930895682F70E0CB018A5A9B4FDF
:10201000FC012491CB018E5B9B4FFC014491625DDE
:102020007B4FFB019491992319F420E030E038C0F4
:10203000222331F1233021F4809180008F7705C075
:10204000243031F4809180008F7D8093800018C00F
:10205000213019F484B58F7704C0223021F484B57F
:102060008F7D84BD0DC0263021F48091B0008F7724
:1020700005C0273029F48091B0008F7D8093B00097
:10208000892F90E0880F991F8C5D9B4FFC01A591D3
:10209000B4918C9120E030E0842311F021E030E015
:1020A000C90108951F920F920FB60F9211242F931A
:1020B0003F934F935F936F937F938F939F93AF93D0
:1020C000BF93EF93FF934091C600E0913D04F091E0
:1020D0003E04CF01019660E870E00E9420149C014C
:1020E00080913F04909140042817390739F0E35458
:1020F000FC4F408330933E0420933D04FF91EF91C9
:10210000BF91AF919F918F917F916F915F914F910F
:102110003F912F910F900FBE0F901F9018955F92D7
:102120006F927F928F929F92AF92BF92CF92DF92E7
:10213000EF92FF920F931F93CF93DF93EC013A013D
:102140004B01413482E458078FE0680780E078074C
:102150000CF07FC060E874E88EE190E0A401930188
:102160000E9455142150304040405040CA01B901EE
:1021700022E030E040E050E00E94551459016A012D
:10218000A6019501209530954095509594E0220F39
:10219000331F441F551F9A95D1F760E074E284EF16
:1021A00090E00E945514CA01B9012FEF30E040E0E1
:1021B00050E00E94ED13A40193010E945514C9013F
:1021C00081509F4F181619061CF4522E5A9403C0C2
:1021D00055245394521A60E079E08DE390E0A40115
:1021E00093010E9455142150304040405040CA0194
:1021F000B90122E030E040E050E00E945514209503
:1022000030954095509583E0220F331F441F551F92
:102210008A95D1F760E074E284EF90E00E94551453
:10222000CA01B9012FEF30E040E050E00E94ED1309
:10223000A40193010E945514C90181509F4F1816A3
:1022400019061CF4822F815002C081E0821B851583
:1022500000F5E885F98581E090E00A8802C0880FE2
:10226000991F0A94E2F7808360E079E08DE390E0C3
:10227000A40193010E945514215030404040504029
:10228000CA01B90122E030E040E050E00E9455145C
:1022900004C0E885F98510829501EC81FD813083C9
:1022A000EE81FF812083EA85FB85208141E050E0BB
:1022B000CA010E8402C0880F991F0A94E2F7282BE6
:1022C0002083EA85FB852081CA010F8402C0880F24
:1022D000991F0A94E2F7282B2083EA85FB858081E9
:1022E000088802C0440F551F0A94E2F7842B8083AC
:1022F000DF91CF911F910F91FF90EF90DF90CF90E2
:10230000BF90AF909F908F907F906F905F90089557
:10231000DC011296ED91FC911397E058FF4F8191EB
:10232000919180589F4F20813181821B930B60E8EF
:1023300070E00E9420140895CF93DF93DC01129681
:10234000ED91FC911397EF01CE57DF4F48815981F2
:10235000E058FF4F80819181E058F0408417950745
:1023600019F42FEF3FEF0CC0E40FF51F2081CA01D5
:10237000019660E870E00E9420149983888330E021
:10238000C901DF91CF910895FC01A085B185218914
:102390008C9190E0022E02C0959587950A94E2F701
:1023A00080FFF6CF0484F585E02D6083089589EAE7
:1023B00091E090934204809341048DEB93E09093DD
:1023C00044048093430485EC90E09093460480930A
:1023D000450484EC90E0909348048093470480EC9B
:1023E00090E090934A048093490481EC90E09093AC
:1023F0004C0480934B0486EC90E090934E048093C1
:102400004D0484E080934F0483E08093500487E080
:102410008093510485E08093520481E080935304BB
:1024200008950E945C0F0E94790D0E940C08FDCF58
:102430000F931F93CF93DF938C01EB0109C021967B
:10244000D801ED91FC910190F081E02DC801099532
:1024500068816623A1F7DF91CF911F910F910895B5
:10246000EF92FF920F931F93CF93DF938C017B0129
:10247000EA010CC0D7016D917D01D801ED91FC916D
:102480000190F081E02DC80109952197209791F7DF
:10249000DF91CF911F910F91FF90EF900895DC0194
:1024A000ED91FC910280F381E02D099508952F9222
:1024B0003F924F925F926F927F928F929F92AF92D4
:1024C000BF92CF92DF92EF92FF920F931F93DF9311
:1024D000CF93CDB7DEB7A0970FB6F894DEBF0FBE8F
:1024E000CDBF1C016A017B014115510561057105D4
:1024F00049F440E350E060E070E020E030E00E940A
:10250000231356C0882499245401422E552466244E
:10251000772401E010E00C0F1D1F080D191DC701E5
:10252000B601A30192010E943314F801608308945C
:10253000811C911CA11CB11CC701B601A301920111
:102540000E943314C901DA016C017D01C114D10468
:10255000E104F104F1F681E0E82EF12CEC0EFD1E11
:10256000E80CF91C3E010894611C711CD501C401E2
:102570000197A109B1096C01C818D90816C0F60164
:10258000EE0DFF1D40814A3010F4405D01C0495CF2
:10259000552747FD5095652F752FC10120E030E08C
:1025A0000E9423130894E108F1086E147F0439F7A0
:1025B000A0960FB6F894DEBF0FBECDBFCF91DF91CE
:1025C0001F910F91FF90EF90DF90CF90BF90AF9051
:1025D0009F908F907F906F905F904F903F902F9043
:1025E0000895DC012115310541F4ED91FC91019034
:1025F000F081E02D642F099508950E9457120895E7
:10260000EF92FF920F931F939A017B0100E010E07D
:10261000B801A7010E94F1121F910F91FF90EF9056
:102620000895EF92FF920F931F939A01E62EFF24D5
:1026300000E010E0B801A7010E94F1121F910F9174
:10264000FF90EF900895EF92FF920F931F93CF9317
:10265000DF93EC017A018B012115310541F4E8810A
:10266000F9810190F081E02D642F09951BC02A307B
:102670003105B1F477FF10C04DE250E060E070E04A
:1026800020E030E00E94231310950095F094E09430
:10269000E11CF11C011D111DCE01B801A7012AE0AA
:1026A0000E945712DF91CF911F910F91FF90EF90F1
:1026B0000895EF92FF920F931F937B019A010027D9
:1026C000F7FC0095102FB801A7010E9423131F915A
:1026D0000F91FF90EF900895EF92FF920F931F9349
:1026E000E62E9A01FF24E7FCF0940F2D1F2DB80170
:1026F000A7010E9423131F910F91FF90EF9008955F
:102700000F931F938C014DE050E060E070E020E0FB
:1027100030E00E942313C8014AE050E060E070E01E
:1027200020E030E00E9423131F910F9108950F9332
:102730001F938C010E94F112C8010E9480131F9107
:102740000F910895CF92DF92EF92FF920F931F9314
:102750008C019A016B01EE24FF24B701A6010E94AF
:10276000F112C8010E9480131F910F91FF90EF900A
:10277000DF90CF9008950F931F938C010E944F120A
:10278000C8010E9480131F910F9108950F931F930A
:102790008C010E942313C8010E9480131F910F9186
:1027A0000895CF92DF92EF92FF920F931F938C01C7
:1027B000C62E9A01DD24C7FCD094ED2CFD2CB70168
:1027C000A6010E942313C8010E9480131F910F913C
:1027D000FF90EF90DF90CF900895629FD001739F9C
:1027E000F001829FE00DF11D649FE00DF11D929FAD
:1027F000F00D839FF00D749FF00D659FF00D9927EC
:10280000729FB00DE11DF91F639FB00DE11DF91F0F
:10281000BD01CF0111240895AA1BBB1B51E107C0C4
:10282000AA1FBB1FA617B70710F0A61BB70B881F60
:10283000991F5A95A9F780959095BC01CD010895EF
:1028400097FB092E07260AD077FD04D0E5DF06D0D6
:1028500000201AF4709561957F4F0895F6F79095D2
:1028600081959F4F0895A1E21A2EAA1BBB1BFD0163
:102870000DC0AA1FBB1FEE1FFF1FA217B307E4075F
:10288000F50720F0A21BB30BE40BF50B661F771FB7
:10289000881F991F1A9469F7609570958095909597
:1028A0009B01AC01BD01CF01089597FB092E0526C0
:1028B0000ED057FD04D0D7DF0AD0001C38F4509555
:1028C0004095309521953F4F4F4F5F4F0895F6F754
:1028D00090958095709561957F4F8F4F9F4F08958C
:1028E000EE0FFF1F0590F491E02D0994F894FFCFAF
:1028F00043757272656E7420636F6E666967757278
:102900006174696F6E3A00444620452000444620B9
:102910005320002000206900206700204020002074
:102920004D487A2000636F6E666967207361766533
:10293000206661696C6564003E2000206466232087
:1029400000203A2000723A207061676520004446FA
:1029500020433F200052200044462052200044469D
:102960002057004F4B2000203F2000202D3E2061AB
:10297000636B00202D3E20002062000A5B5246312E
:102980003264656D6F5D004446204920003B01B113
:10299000016403930300000000C4111812301200F8
:00000001FF
